:020000040000FA
:0400000006EF00F017
:0800080059EF00F01CEC00F0C0
:1000100021EC00F024EC00F06F6FC58031EC00F0B3
:10002000D00E2FEC00F031EC00F0C5BC36EF00F044
:100030003FEF00F006EF00F00F0EC16E929092922B
:100040001200899289901200C68AC690C692C69400
:10005000C68693809382C78E090EC86E000CC96E47
:10006000000C9EA631EF00F09E96000C8972300EB7
:1000700053EC00F0C58431EC00F00DEF00F0898006
:10008000C58431EC00F043EF00F0540E6D6F260E86
:100090006C6F00006C2FFED76D2FF9D712000A0E7F
:1000A00053EC00F012006E6F45EC00F06E2FFCD7A1
:0400B0001200120028
:020000040030CA
:0100000000FF
:0100010000FE
:0100020019E4
:010003001EDE
:01000500807A
:010006008079
:010008000FE8
:01000900C036
:01000A000FE6
:01000B00E014
:01000C000FE4
:01000D0040B2
:00000001FF
