:020000040000FA
:0400000006EF00F017
:08000800C4EF00F046EC00F02B
:100010004EEC00F064EC00F06F6FC58078EC00F0FF
:10002000D00E6FEC00F06B0E6FEC00F0000E6FEC7A
:1000300000F0C58278EC00F0D00E6FEC00F03D0EC1
:100040006FEC00F0C58278EC00F0D10E6FEC00F0A0
:10005000C58678EC00F0C58AC58878EC00F0C950F8
:10006000716FC58278EC00F0D10E6FEC00F0C586A0
:1000700078EC00F0C58AC58878EC00F0C950706F44
:10008000A6EC00F089EF00F006EF00F00F0EC16E55
:100090009290929293969398939A12008992899053
:1000A000606B616B626B636B646B656B666B686BDB
:1000B0006A6B8A968A9A8A98706B716BAF0E706FB2
:1000C000716FA6EC00F01200C68AC690C692C69464
:1000D000C68693809382C78E090EC86E000CC96EC7
:1000E0009EA678EF00F09E96C5BC80EF00F0000C55
:1000F0009EA678EF00F09E96C5BC80EF00F0000C45
:100100008972010EA0EC00F0C58478EC00F00DEFD0
:1001100000F08970010EA0EC00F0C58478EC00F0CE
:100120000DEF00F0540E6D6F260E6C6F00006C2FFB
:10013000FED76D2FF9D712000A0EA0EC00F01200C6
:100140006E6F92EC00F06E2FFCD71200726B70C0D5
:1001500073F0B2EC00F071C073F0B2EC00F0C1ECDF
:1001600000F012007333D8B08A88D8A08A98722B16
:10017000BEEC00F072A7F6D7726B12008A8A8A9AD8
:0A01800012008A868A96120012000F
:020000040030CA
:0100000000FF
:0100010000FE
:0100020019E4
:010003001EDE
:01000500807A
:010006008079
:010008000FE8
:01000900C036
:01000A000FE6
:01000B00E014
:01000C000FE4
:01000D0040B2
:00000001FF
